:040000000CEF00F011
:10000800FACF06F0FBCF07F0E9CF08F00EED00F0CD
:1000180010EF03F00600EACF09F0E1CF0AF0E2CFD3
:100028000BF0D9CF0CF0DACF0DF0F3CF0EF0F4CF00
:100038000FF0F6CF10F0F7CF11F0F8CF12F0F5CFA0
:1000480013F09DB09EA083D09D909E901A50930D62
:10005800930EF324016E040EF420026EC8EC00F037
:10006800F7EC02F01A50930D040EF326000EF4225A
:10007800930EF324D96E040EF420DA6EFDCFDFFF61
:100088001A50930D050EF326000EF422930EF32456
:10009800D96E040EF420DA6EFECFDFFF1A50930DEE
:1000A800060EF326000EF422930EF324D96E040EE6
:1000B800F420DA6EFFCFDFFF1A2A1A50010B1A6EEE
:1000C8001A50930D930EF324016E040EF420026E61
:1000D80045EC01F01A50930D050EF326000EF4229C
:1000E800930EF324D96E040EF420DA6EDF50FE6E00
:1000F8001A50930D040EF326000EF422930EF324E7
:10010800D96E040EF420DA6EDF50FD6E1A50930D8E
:10011800060EF326000EF422930EF324D96E040E75
:10012800F420DA6EDF50FF6E1A50930D020EF3269C
:10013800000EF422930EF324D96E040EF420DA6E26
:10014800DE2A000EDD22CF68FB0ECE6E9D8013C026
:10015800F5FF12C0F8FF11C0F7FF10C0F6FF0FC07F
:10016800F4FF0EC0F3FF0DC0DAFF0CC0D9FF0BC0BF
:10017800E2FF0AC0E1FF09C0EAFF08C0E9FF07C0C3
:10018800FBFF06C0FAFF1100000E056E16D00550E1
:10019800036E046A03C0D9FF04C0DAFF0550010DDD
:1001A800130EF326000EF422F3500124E16EF450EE
:1001B8000220E26EDFCFE7FF052A7E0E0564E7D74F
:1001C80020EE07F00150D9260250DA2292CFDFFF45
:1001D80020EE08F00150D9260250DA2293CFDFFF33
:1001E80020EE09F00150D9260250DA2294CFDFFF21
:1001F80020EE0AF00150D9260250DA2295CFDFFF0F
:1002080020EE0BF00150D9260250DA2280CFDFFF12
:1002180020EE0CF00150D9260250DA2281CFDFFF00
:1002280020EE0DF00150D9260250DA2282CFDFFFEE
:1002380020EE0EF00150D9260250DA2283CFDFFFDC
:1002480020EE0FF00150D9260250DA2289CFDFFFC5
:1002580020EE10F00150D9260250DA228ACFDFFFB3
:1002680020EE11F00150D9260250DA228BCFDFFFA1
:1002780020EE12F00150D9260250DA228CCFDFFF8F
:100288001200000E056E16D00550010D130EF32650
:10029800000EF422F3500124D96EF4500220DA6ED5
:1002A8000550036E046A03C0E1FF04C0E2FFDFCF1C
:1002B800E7FF052A7E0E0564E7D720EE07F0015018
:1002C800D9260250DA22DF50926E20EE08F0015053
:1002D800D9260250DA22DF50936E20EE09F0015041
:1002E800D9260250DA22DF50946E20EE0AF001502F
:1002F800D9260250DA22DF50956E20EE0BF001501D
:10030800D9260250DA22DF50806E20EE0CF0015020
:10031800D9260250DA22DF50816E20EE0DF001500E
:10032800D9260250DA22DF50826E20EE0EF00150FC
:10033800D9260250DA22DF50836E20EE0FF00150EA
:10034800D9260250DA22DF50896E20EE10F00150D3
:10035800D9260250DA22DF508A6E20EE11F00150C1
:10036800D9260250DA22DF508B6E20EE12F00150AF
:10037800D9260250DA22DF508C6E120020EE07F0E8
:100388001450D9261550DA22000EDF6E20EE08F040
:100398001450D9261550DA22000EDF6E20EE09F02F
:1003A8001450D9261550DA22000EDF6E20EE0AF01E
:1003B8001450D9261550DA22000EDF6E20EE0BF00D
:1003C8001450D9261550DA22000EDF6E20EE0CF0FC
:1003D8001450D9261550DA22000EDF6E20EE0DF0EB
:1003E8001450D9261550DA22000EDF6E20EE0EF0DA
:1003F8001450D9261550DA22000EDF6E20EE0FF0C9
:100408001450D9261550DA22000EDF6E20EE10F0B7
:100418001450D9261550DA22000EDF6E20EE11F0A6
:100428001450D9261550DA22000EDF6E20EE12F095
:100438001450D9261550DA22000EDF6E000E166E03
:100448000FD01650010D130EF326000EF422F350B0
:100458001424D96EF4501520DA6E000EDF6E162AB9
:10046800800E1664EED7DEEC02F01200000E186E55
:10047800000E176E060E0101016F420E0101006F9A
:10048800A2EC02F023EE00F0930EEECFDEFFE82E92
:10049800FCD7050E0101016F880E0101006FA2EC67
:1004A80002F024EE00F0930EEECFDEFFE82EFCD72C
:1004B80023EE00F014EE93F0930EDECFE6FFE82E65
:1004C800FCD724EE00F015EE26F0930EDECFE6FF03
:1004D800E82EFCD7DEEC02F0040E156E930E146EB7
:1004E800C2EC01F0050E156E260E146EC2EC01F07A
:1004F800000E1A6EFD0ECD6ECF68FE0ECE6E9E906B
:100508009F809D80D08EF28E1A50930D930EF32407
:10051800D96E040EF420DA6E01D80AD00500FA6EFE
:10052800DE50FD6EDE50FE6EF850FF6EFA5012007F
:100538001A501726000E182200F0E6D70101020112
:1005480001C101F20101020100C100F2010101C172
:1005580014F014C015F0166A15500201056F00C199
:1005680004F2000E0201066F22EE92F001EE92F004
:10057800930EDDCFEDFFE82EFCD7E92AEA22120020
:10058800000E936E00F000F0000E156E000E146E53
:100598001550800A590F100ED8B4145CD8B004D086
:1005A80000F0144A152AF4D7010E816E00F000F00D
:1005B80000F0FAD7000E926E000E936E000E946E45
:1005C800000E956E000E806E000E816E000E826E1B
:1005D800000E836E000E896E000E8A6E000E8B6E02
:1005E800000E8C6E1200000E926E000E936E000EBE
:1005F800946E000E956E000E806E000E816E000ED9
:10060800826E000E836E000E896E000E8A6E000EDA
:100618008B6E000E8C6E120004EE93F011EE26F035
:10062800EE6AE550E150FCE1E250FAE11A6A196A13
:10063800000EF86E00013AEF02F0000E936E00F023
:1006480000F0020E146E00F000F014C081FF00F0FC
:02065800F6D7D3
:020000040020DA
:08000000FFFFFFFFFFFFFFFF00
:020000040030CA
:0E000000FF071F1FFF8385FF0FC00FE00F409B
:00000001FF
