:040000000CEF00F011
:10000800FACF03F0FBCF04F0E9CF05F00EED00F0D6
:10001800ACEF02F00600EACF06F0E1CF07F0E2CF3E
:1000280008F0D9CF09F0DACF0AF0F3CF0BF0F4CF0C
:100038000CF0F6CF0DF0F7CF0EF0F8CF0FF0F5CFAC
:1000480010F09DB09EA095D09D909E906150130D8C
:100058000001800EF324016E0001000EF420026EF0
:100068009DEC01F093EC02F06150130D040EF326A1
:10007800000EF4220001800EF324D96E0001000E58
:10008800F420DA6EFDCFDFFF6150130D050EF32665
:10009800000EF4220001800EF324D96E0001000E38
:1000A800F420DA6EFECFDFFF6150130D060EF32643
:1000B800000EF4220001800EF324D96E0001000E18
:1000C800F420DA6EFFCFDFFF612A6150010B616E09
:1000D8006150130D0001800EF324016E0001000E23
:1000E800F420026EFEEC01F06150130D050EF326AC
:1000F800000EF4220001800EF324D96E0001000ED8
:10010800F420DA6EDF50FE6E6150130D040EF326F4
:10011800000EF4220001800EF324D96E0001000EB7
:10012800F420DA6EDF50FD6E6150130D060EF326D3
:10013800000EF4220001800EF324D96E0001000E97
:10014800F420DA6EDF50FF6E6150130D020EF326B5
:10015800000EF4220001800EF324D96E0001000E77
:10016800F420DA6EDE2A000EDD22CF68EC0ECE6EA9
:100178009D8010C0F5FF0FC0F8FF0EC0F7FF0DC03F
:10018800F6FF0CC0F4FF0BC0F3FF0AC0DAFF09C08A
:10019800D9FF08C0E2FF07C0E1FF06C0EAFF05C0BB
:1001A800E9FF04C0FBFF03C0FAFF1100050E126E41
:1001B800720E116E5FEC02F020EE3AF0130EEECFE5
:1001C800DEFFE82EFCD7050E126E820E116E5FEC74
:1001D80002F020EE4DF0130EEECFDEFFE82EFCD736
:1001E80020EE3AF010EE80F0130EDECFE6FFE82E98
:1001F800FCD720EE4DF010EE93F0130EDECFE6FFA5
:10020800E82EFCD77AEC02F00001000E126E000115
:10021800800E116E3CEC01F00001000E126E000120
:10022800930E116E3CEC01F0000E616EFD0ECD6E6A
:10023800CF68F60ECE6E9E909F809D80D08EF28EF7
:100248006150130D0001800EF324D96E0001000ED9
:10025800F420DA6E01D80AD00500FA6EDE50FD6E81
:10026800DE50FE6EF850FF6EFA50120000F0E8D72C
:1002780020EE07F01150D9261250DA22000EDF6E58
:1002880020EE08F01150D9261250DA22000EDF6E47
:1002980020EE09F01150D9261250DA22000EDF6E36
:1002A80020EE0AF01150D9261250DA22000EDF6E25
:1002B80020EE0BF01150D9261250DA22000EDF6E14
:1002C80020EE0CF01150D9261250DA22000EDF6E03
:1002D80020EE0DF01150D9261250DA22000EDF6EF2
:1002E80020EE0EF01150D9261250DA22000EDF6EE1
:1002F80020EE0FF01150D9261250DA22000EDF6ED0
:1003080020EE10F01150D9261250DA22000EDF6EBE
:1003180020EE11F01150D9261250DA22000EDF6EAD
:1003280020EE12F01150D9261250DA22000EDF6E9C
:10033800120020EE07F00150D9260250DA2292CF9F
:10034800DFFF20EE08F00150D9260250DA2293CFC1
:10035800DFFF20EE09F00150D9260250DA2294CFAF
:10036800DFFF20EE0AF00150D9260250DA2295CF9D
:10037800DFFF20EE0BF00150D9260250DA2280CFA1
:10038800DFFF20EE0CF00150D9260250DA2281CF8F
:10039800DFFF20EE0DF00150D9260250DA2282CF7D
:1003A800DFFF20EE0EF00150D9260250DA2283CF6B
:1003B800DFFF20EE0FF00150D9260250DA2289CF54
:1003C800DFFF20EE10F00150D9260250DA228ACF42
:1003D800DFFF20EE11F00150D9260250DA228BCF30
:1003E800DFFF20EE12F00150D9260250DA228CCF1E
:1003F800DFFF120020EE07F00150D9260250DA2262
:10040800DF50926E20EE08F00150D9260250DA2211
:10041800DF50936E20EE09F00150D9260250DA22FF
:10042800DF50946E20EE0AF00150D9260250DA22ED
:10043800DF50956E20EE0BF00150D9260250DA22DB
:10044800DF50806E20EE0CF00150D9260250DA22DF
:10045800DF50816E20EE0DF00150D9260250DA22CD
:10046800DF50826E20EE0EF00150D9260250DA22BB
:10047800DF50836E20EE0FF00150D9260250DA22A9
:10048800DF50896E20EE10F00150D9260250DA2292
:10049800DF508A6E20EE11F00150D9260250DA2280
:1004A800DF508B6E20EE12F00150D9260250DA226E
:1004B800DF508C6E120012C028F011C027F012C055
:1004C80024F024C025F0266A25502C6E11C02BF08C
:1004D800000E2D6E20EE39F000EE23F0130EDDCF66
:1004E800EDFFE82EFCD7E92AEA221200000E926EF0
:1004F800000E936E000E946E000E956E000E806EC8
:10050800000E816E000E826E000E836E000E896EE4
:10051800000E8A6E000E8B6E000E8C6E1200000E9E
:10052800926E000E936E000E946E000E956E000E85
:10053800806E000E816E000E826E000E836E000EBD
:10054800896E000E8A6E000E8B6E000E8C6E120085
:1005580000EE80F0260EEE6AE806FDE1616A606A48
:10056800000EF86E0001DAEF00F0000E936E00F056
:1005780000F0BD0E816E00F0FAD7000E936E00F009
:0A05880000F0AC0E816E00F0FAD70F
:020000040020DA
:08000000FFFFFFFFFFFFFFFF00
:020000040030CA
:0E000000FF071F1FFF8385FF0FC00FE00F409B
:00000001FF
